:020000040800F2
:1000000068060020650100088B0100088D010008CA
:100010008F01000891010008930100080000000012
:100020000000000000000000000000009501000832
:10003000970100080000000099010008D509000898
:10004000190400081D0400081F0400081B04000810
:100050000907000800000000AD030008590B000864
:100060005B0B0008D1090008D3090008B1030008A0
:10007000B3030008B5030008B7030008E909000846
:10008000EB090008ED090008EF090008F109000874
:10009000F30900085D06000829040008F5090008B6
:1000A0001D0A000800000000000000000000000021
:1000B00000000000AB030008AF0300089D0100082A
:1000C00000F002F800F03EF80CA030C80838241800
:1000D0002D18A246671EAB4654465D46AC4201D180
:1000E00000F030F87E460F3E0FCCB6460126334274
:1000F00000D0FB1AA246AB4633431847B80A0000AB
:10010000D80A0000103A02D378C878C1FAD852074A
:1001100001D330C830C101D504680C6070470000BD
:100120000023002400250026103A01D378C1FBD813
:10013000520700D330C100D50B6070471FB51FBDFB
:1001400010B510BD00F000F91146FFF7F7FF00F001
:1001500027FD00F018F903B4FFF7F2FF03BC00F02D
:100160001DF900001148124901601248124901604E
:100170001248134901601348134901600F4813499D
:1001800001601348804713480047FEE7FEE7FEE79B
:10019000FEE7FEE7FEE7FEE7FEE7FEE7FEE700001C
:1001A0000D480E490E4A0F4B7047000010300040BA
:1001B00010005FA0DC03004001005FA000100240BF
:1001C000000080005C10024060005FA000000000A2
:1001D000D9090008C1000008680000206806002056
:1001E0006802002068020020002203098B422CD301
:1001F000030A8B4211D300239C464EE003460B4377
:100200003CD4002243088B4231D303098B421CD3D8
:10021000030A8B4201D394463FE0C3098B4201D3CA
:10022000CB01C01A524183098B4201D38B01C01A02
:10023000524143098B4201D34B01C01A5241030979
:100240008B4201D30B01C01A5241C3088B4201D328
:10025000CB00C01A524183088B4201D38B00C01AD5
:10026000524143088B4201D34B00C01A5241411AFC
:1002700000D201465241104670475DE0CA0F00D0DF
:100280004942031000D34042534000229C460309D8
:100290008B422DD3030A8B4212D3FC22890112BA5E
:1002A000030A8B420CD3890192118B4208D3890136
:1002B00092118B4204D389013AD0921100E089094E
:1002C000C3098B4201D3CB01C01A524183098B422F
:1002D00001D38B01C01A524143098B4201D34B0118
:1002E000C01A524103098B4201D30B01C01A52417B
:1002F000C3088B4201D3CB00C01A524183088B4202
:1003000001D38B00C01A5241D9D243088B4201D38A
:100310004B00C01A5241411A00D201466346524175
:100320005B10104601D34042002B00D54942704774
:1003300063465B1000D3404201B50020C046C04672
:1003400002BD704770477047754600F023F8AE460F
:10035000050069465346C008C000854618B020B560
:10036000FFF71EFF60BC00274908B6460026C0C53F
:10037000C0C5C0C5C0C5C0C5C0C5C0C5C0C5403D5D
:1003800049008D4670470446C046C0462046FFF7E8
:10039000E2FE0000004870470400002001491820D8
:1003A000ABBEFEE7260002007047704770477047FB
:1003B0007047704770477047F0B54B880A88022B2A
:1003C00004D0012B06D0002B0BD011E0036A13439D
:1003D00003620DE0036A93430362026C0B881A43C5
:1003E00005E0036A93430362026C0B889A4302643C
:1003F000036E00220E88032701249440264206D073
:1004000054003D46A540AB438D88A5402B43521C6C
:10041000102AF1D30366F0BD7047704770477047EC
:1004200010B500F037FA10BD704770B500252846AA
:10043000B030C0B2002100F0FCF80021084600F006
:10044000F8F80021102000F0F4F800240121002029
:1004500000F0EFF8641CE4B2802CF7D36D1CEDB211
:10046000082DE4D370BD10B5002806D0012803D1B3
:100470000021A72000F0DDF810BD0021A620F9E73B
:1004800010B500280AD0012807D10021C02000F0B3
:10049000D0F80021A02000F0CCF810BD0021C82029
:1004A00000F0C7F80021A120F5E710B500218D204C
:1004B00000F0BFF80021102000F0BBF80021AE20B2
:1004C00000F0B7F810BD10B500218D2000F0B1F894
:1004D0000021142000F0ADF80021AF2000F0A9F8B1
:1004E00010BD10B50021AE2000F0A3F80021084691
:1004F00000F09FF80021102000F09BF80021402020
:1005000000F097F80021B82000F093F80021812036
:1005100000F08FF80021FF2000F08BF80021A120CF
:1005200000F087F80021A62000F083F80021A82021
:1005300000F07FF800213F2000F07BF80021C82068
:1005400000F077F80021D32000F073F8002108466E
:1005500000F06FF80021D52000F06BF8002180201A
:1005600000F067F80021D82000F063F80021052092
:1005700000F05FF80021D92000F05BF80021F120A5
:1005800000F057F80021DA2000F053F80021122083
:1005900000F04FF80021DB2000F04BF80021302064
:1005A00000F047F800218D2000F043F800211420CE
:1005B00000F03FF80021AF2000F03BF8FFF735FFD7
:1005C0000021AF2000F035F80020FFF74CFF00209D
:1005D000FFF756FFFFF769FFFFF775FF10BD10B576
:1005E0000446B031C8B2002100F023F820090021F0
:1005F000103000F01EF82007000F002100F019F85D
:1006000010BDF8B50024012506462346802728465C
:100610009840104202D03846D84004435B1C082B57
:10062000F5DB3046FFF7DBFF0121204600F001F843
:10063000F8BD70B50C46054600F068FA782000F069
:1006400053FA002C01D0402000E0002000F04CFACA
:10065000284600F049FA00F06FFA70BD70470000BC
:1006600004498A010028086801D0104300E0904343
:10067000086070470000024004490A6807231B0510
:100680009A430A600A6802430A6070470000024009
:10069000044A0029116801D0014300E08143116040
:1006A000704700000000024004490A6807231B0548
:1006B0009A430A600A6802430A60704700300040AB
:1006C00000B50246FF2000F0DBF8054940234869E9
:1006D000002A01D0184300E09843486100BD0000A3
:1006E0000030004000B50246FF2000F0C9F805497F
:1006F00020234869002A01D0184300E0984348614C
:1007000000BD0000003000407047000000B5024608
:10071000FF2000F0B5F80549CB134869002A01D045
:10072000184300E09843486100BD000000300040DD
:1007300000B50246FF2000F0A3F8054902234869EE
:10074000002A01D0184300E09843486100BD000032
:100750000030004000B50246FF2000F091F8054946
:10076000002A486902D00122104301E040084000FD
:10077000486100BD00300040F8B50546FF2000F09C
:100780007FF820480326012736033F031E4C85428D
:1007900026D00121084601E04900401CE269920789
:1007A000920F521C8242F7D2E0690004000E400012
:1007B000FFF71AFD402805D36069B04360616069A6
:1007C0003843606160690721C9018843284360613B
:1007D0006069802108436061606900060DD40EE005
:1007E0006069B0436061606938436061616980201D
:1007F000814361616069000601D40020F8BD0120D9
:10080000F8BD00007FFF00000030004010B50C4C28
:100810000423024601280ED0FF2000F031F82069A1
:1008200098432061074988696023984388618869F3
:100830001043886110BD20691843206110BD00007D
:1008400000E000E00030004005490028086902D0BF
:100850000322104301E08008800008617047000017
:1008600000E000E00449401E884203D80349486183
:100870000020886170470000FFFFFF0000E000E0FB
:10088000402803D30249C860002070470120704708
:100890000030004010B500F007F800F015F800F047
:1008A00035F800F047F810BD05480622016A1143EB
:1008B000016204480922016A120311430162704770
:1008C000001001400011014010B5FF20FFF7D8FFD4
:1008D0000020FFF707FF0020FFF73CFF0120FFF794
:1008E00027FF0120FFF7ECFE0120FFF70FFF06486E
:1008F000FFF742FF0020FFF7D7FE0020FFF7BCFE06
:100900000120FFF7ADFE10BD7FFF000010B5FF20F6
:10091000FFF7B6FF0020FFF779FF7D20C001FFF74A
:10092000A1FF0021481E00F019F90120FFF78CFFFC
:1009300010BD000070B588B0202168468181012576
:10094000C58100241F4E048203A93046FFF734FD01
:10095000402168468182C582048305A93046FFF79D
:100960002BFD01211020FFF793FE02216846018034
:10097000C901418084800295C480134C6946204699
:1009800000F092F8E903204600F0A6F80122114693
:10099000204600F07EF800228021204600F050F82A
:1009A00000224021204600F04BF80321172000F0E0
:1009B000D5F8064AE90511600121204600F034F817
:1009C00008B070BD001001406000024000E100E08E
:1009D000704770477047000001200249C0068860D8
:1009E0007047000000ED00E07047704770477047A7
:1009F0007047704710B5074C0121204600F042F8BF
:100A0000002802D00449012008700121204600F08E
:100A100006F810BD600002400000002070474268E8
:100A20000A434260704700000029016802D080221A
:100A3000114301E0014A1140016070477FFF00004F
:100A4000002A026901D00A4302E0C94389B20A4080
:100A5000026170470029016802D02022114301E0A1
:100A6000014A114001607047DFFF00000029016862
:100A700002D01022114301E0014A11400160704789
:100A8000EFFF00000246526800200A4200D0012019
:100A90007047002A026901D00A4302E0C94389B2C3
:100AA0000A4002617047000010B50368094A4C888B
:100AB00013400A8822438C881C43224302608268C8
:100AC000CB88097A120A12024906090E11430B4318
:100AD000836010BDFC3FFFFF026803239B039A4322
:100AE0000A4302607047000010B50146044800F058
:100AF0000BF8044801780029FCD00021017010BDDA
:100B00006000024000000020C160704710B5012164
:100B10000748FFF79FFF074801780029FCD0002114
:100B20000170C8200146401E80B20029FAD110BDD4
:100B3000600002400000002010B501210448FFF7CA
:100B400095FF04480146401E80B20029FAD110BD2D
:100B50006000024014050000704770478307FF22C1
:100B6000DB0E9A408907090E9940002808DB8308AC
:100B700009489B001818036893430B4303607047B0
:100B80000007000F0838830804489B001818C36941
:100B900093430B43C361704700E400E000ED00E0C5
:100BA000FFF73EFCFFF79DFCFF2205214020FFF7E9
:100BB00028FDF9E7D40B0008000000200400000025
:100BC00004010008D80B000804000020640600009F
:080BD0002001000800000000F4
:04000005080000C12E
:00000001FF
